:020000040000FA
:10000000880A0020D5000000EF000000F100000089
:1000100000000000000000000000000000000000E0
:10002000000000000000000000000000F3000000DD
:100030000000000000000000F5000000F7000000D4
:10004000F9000000F90000004D0200005501000019
:10005000F900000000000000F9000000F9000000B5
:1000600009020000F9000000F9000000F90000009A
:10007000F9000000F9000000F9000000F90000009C
:10008000F9000000F9000000F9000000F90000008C
:10009000F9000000F9000000F9000000F90000007C
:1000A000F9000000F900000000000000000000005E
:1000B0000000000000000000000000000000000040
:1000C0000348854600F034F8004800475D0600000C
:1000D000880A00200321094802680A430260084890
:1000E00002680A4302600748804707480047FEE766
:1000F000FEE7FEE7FEE7FEE7FEE70000240500401E
:100100005405004069010000C100000003460B4394
:100110009B0703D009E008C9121F08C0042AFAD2BD
:1001200003E00B780370401C491C521EF9D2704743
:10013000064C0125064E05E0E36807CC2B430C3C3A
:1001400098471034B442F7D3FFF7BEFFD00F00003A
:10015000F00F000010B50249024800F004FA10BD8B
:10016000340200200030004010B500F053FA00289F
:1001700005D01F491D484860C8131E4988611E48A4
:10018000018CC9B201290BD1828C120708D1028DD2
:100190001206120F042A03D1828D1206120F0AD002
:1001A000012921D1818C09071ED1018D0906090F72
:1001B0000A2904D007E0114A01219160F5E7828DF8
:1001C0001206120F05D00D290ED1808D0006000FEA
:1001D0000AD10B480168012904D00A49016001686D
:1001E0000129FCD1C021416110BD0000DFFF07C023
:1001F00000050040006C0040C00F00F00006004009
:1002000000EC064075930000F8B50E4C042700255D
:10021000BE03A8003146A940FF3041302258002AD1
:100220000BD003221202A21852680A4205D0002104
:100230002150054A5168126890476D1CEDB2BD42CD
:10024000E7D3F8BD008000405C02002010B50249F1
:10025000024800F009FE10BD1802002000200040F6
:1002600010B5024A024900F014F810BD590500000B
:100270001000002002E008C8121F08C1002AFAD1AD
:1002800070477047002001E001C1121F002AFBD116
:100290007047F8B516460F460446002503E0394678
:1002A000B047641C6D1C20780028F8D12846F8BDA2
:1002B000BFF34F8F04490348C860BFF34F8F00BF9F
:1002C000FDE700000400FA0500ED00E00EB5002196
:1002D000029000916A4601910148FFF7E9FF0EBDC7
:1002E0000140000010B58268C368934203D000F05B
:1002F00020F9002010BD052010BD002906D0002ADD
:1003000002D0531E134203D0092070470E207047BD
:100310000160838000218160C1600846704710B58C
:100320008268C3689A1A83889A4203D800F00BF94E
:10033000002010BD042010BD70B50B4D0146AE78F5
:100340000A48FFF7CFFF0446002E0AD00020A8700D
:10035000691C0122C81D00F03BFA002801D0FFF7FC
:10036000B5FF204670BD000000000020680200209C
:10037000F0B5274E89B01F460D00044672601CD0B0
:10038000A888296882B22348FFF7B7FF002815D153
:10039000A889A96882B21F481030FFF7AEFF002875
:1003A0000CD120221C496846FFF7B0FE6069069018
:1003B000207C002804D0012103E0072009B0F0BD13
:1003C0000021684601750777607C002800D00E2068
:1003D00069464875E0680290A06803902068019023
:1003E000606800900A480D4A083000F0B1F9002812
:1003F000E4D1B0702068401CE0D00548083000F01F
:1004000015FA03490122491CC81D00F0E1F9D5E79E
:100410000000002068020020B00F0000C10D0000A5
:1004200010B501460C48FFF77AFF040012D10B48C3
:1004300000F0C6FA00280DD1084907480839FFF72F
:1004400051FF002806D1054901220839034800F070
:1004500057FA0446204610BD78020020080000200C
:10046000F8B5074608680C460526411C01253602EA
:10047000002906D02946814019488160206800F093
:10048000DCFA6068411C02D0002100F0CDFA396826
:10049000A06989194862607D217D3A6808439119F5
:1004A000C866386806CC80194261C160207B083C70
:1004B000012814D1A068411C02D0002100F0B4FA38
:1004C000E068411C05D0854005488560E06800F083
:1004D000B4FA3A68E1689219A06891601061F8BDB9
:1004E0000005005010B50349085C012100F0B0FA86
:1004F00010BD0000A80F00007CB50024074E254663
:10050000305D0122009500231146019500F064FA48
:10051000641C042CF4D300F003F87CBDA80F000089
:1005200010B500242046FFF7DDFF641C042CF9D32E
:1005300010BD826883881A4003689A5C0A708168DB
:10054000491C81607047C26883881A4003689954C7
:10055000C168491CC160704710B50446C0B2FFF7BE
:100560005FFF204610BD7FB50C460D462035064680
:10057000697828780191009022462632D11E3046B3
:10058000E36900F024FB002819D1E87800281DD188
:10059000207B022801D0032818D12269E169914209
:1005A00014D16269E261E37B2B70217E8906C90F59
:1005B0006970032804D03146204600F0A1FA7FBDBF
:1005C00000913146204600F087FB7FBD20460C306D
:1005D00007C801AB07C3E878002100280ED0092026
:1005E000C0013218506C5064820701D5012002E02E
:1005F000400705D502206A46107001E06846017088
:100600002971207E4007E0D42268684661689047DF
:100610007FBD00001048018CC9B2012917D1818C1F
:10062000090714D1018D09060A0F03D1828D120624
:10063000120F0ED0090F012903D1828D1206120F5D
:1006400007D0032903D1808D0006000F01D00020C0
:100650007047012070470000C00F00F08AB0FFF71C
:100660004BFF182218496846FFF750FDFF21013162
:100670001648069040180791099108900323144AE0
:1006800006A96846FFF774FE002801D0FFF71EFE9A
:1006900010A0FFF7E5FD06A8FFF74EFE0028FAD1EF
:1006A0006846007EFFF7BCFE0028F9D10CA0FFF7DA
:1006B000D7FD6846007E712801D05128EBD109A0F2
:1006C000FFF7CEFDFEE70000900F000018000020AD
:1006D000AB0D00000D0A53746172743A200D0A00CC
:1006E00000000000200D0A45786974210D0A000001
:1006F0008207D30EFF229A408907090E10B5994050
:1007000000280BDA03071B0F083B9C080C4BA400C6
:10071000E318DC6994430C43DC6107E08408094B6F
:10072000A400E418236893430B432360C106C90E59
:1007300001208840044908600449086010BD000099
:1007400000ED00E000E400E080E200E000E100E015
:10075000F8B506460F4600791C2148431A4915464C
:100760004418E07E002801D00820F8BD3946304604
:10077000FFF776FE6560386920602846002500286E
:1007800013D0FF223068397F1D328550FF22306838
:1007900045328550032330681B020C4AC018426062
:1007A0003068000B40B2FFF7A3FF05223068042138
:1007B000120280180160E5752576A5750121E176A4
:1007C0002846A576F8BD000018020020800002002F
:1007D000F8B503791C246343134C81251C190327A6
:1007E00066680023AD003F02002E02D00668F619AD
:1007F000B560E67D002E0ED0237E002B07D0616809
:10080000002902D00068C01945601120F8BD21619F
:100810000123227604E0E2750025E1606576257605
:1008200000F01AF8F8BD00001802002070B5044668
:1008300000791C21074D48434019807E002808D1CB
:10084000204600F040F920791C2201215043401934
:10085000817670BD18020020F8B5044600791C218D
:10086000484326494518A87E184302D1204600F087
:100870002AF96868002808D08121032220688900AD
:100880001202801841600020F8BDFF204530216829
:1008900000220A50FF212531206800F0EAF80646C0
:1008A000FF210931206800F0E4F80090FF21453174
:1008B000206800F0DEF80746009838433043E9D05E
:1008C0003046384307D12946206800F0DFF8E87D3C
:1008D000697E8842DED80020E875002E01D0032012
:1008E000F8BD002F01D00F20F8BDA97E01200029FE
:1008F000216801D00860C6E74860C4E718020020FC
:1009000070B505460C4600791C2148430849431838
:10091000284600F055F8002801D0112070BD9A75C6
:1009200000209C609882284600F004F870BD00000A
:1009300018020020F8B5044600791C2148431F49DD
:1009400000264518FF2720681D37C6512068012161
:1009500081602946206800F00DFA6968002913D0EB
:1009600027E0FF270137FF211D31206800F081F8C3
:10097000002802D1A88AB842F5D1A88AB84203D08B
:100980002946206800F0F6F9A88AA97D8842E8D3B4
:10099000A98AC81FF9380ED0FF271D3739462068AD
:1009A00000F067F80028F9D020680121C16000201C
:1009B000A8753046F8BD0F26F9E7000018020020A0
:1009C00000791C21484303494018807D002800D04D
:1009D000012070471802002070B552000A439900A8
:1009E000049D0A432902059E0A43310405240A4353
:1009F000240780000721001909024018026070BD19
:100A000070B552000A439900049D0A432902059ECD
:100A10000A43310405240A432407800007210019F2
:100A200009024018026070BD1CB500220B460092FE
:100A300011460192FFF7E4FF1CBD1CB50021009197
:100A40000B46012201911146FFF7DAFF1CBD0000A1
:100A5000012282400348002901D082607047C260B1
:100A600070470000000500504058002800D00120C9
:100A700070474058002800D001207047032212021E
:100A800080184068084000D00120704730B5FF2230
:100A90000523CD7D002409321B02C318002D84508C
:100AA000986905D04B7ECA68D054487E401C487671
:100AB00030BD1FB501246B461C701972019206C827
:100AC000684690471FBDFF23253302680021D1509F
:100AD000FF2302680933D15000680121016070478B
:100AE00001460320CA0701D0412040028A0700D5F1
:100AF0000248490701D50148401C704701820000A7
:100B0000FFB50C4685B000210491FF210531002678
:100B10001F466650FF2125316650FF211D3166506A
:100B2000FF210931665005462035E11DFF31AE71C8
:100B3000FA31EE70012F0FD001220A6001212162EB
:100B400021600168002909D014498160806803216F
:100B50000902611848601DE00222EEE701462631D5
:100B6000233003910290009701962046079B039A39
:100B7000029900F02CF80028F5D1E878002809D077
:100B80000920C0012118486C4864002802D0FFF7F2
:100B9000A7FF0490049809B0F0BD00008602000091
:100BA00030B51C78039D944208D205221202095DDB
:100BB0008018C1611878401C187006E00121002DD2
:100BC00002D0C161002030BD4161012030BDFFB5C0
:100BD0000F46097883B00446002904D105980278AD
:100BE0000C98824201D1012000E000200190FF20FA
:100BF00025300025002907D02550FF201D30255025
:100C0000FF200930255055E0FF2125312046FFF710
:100C10002BFF012600282CD1FF211D312046FFF794
:100C200023FF002814D0FF201D302550FF2125313F
:100C30002046FFF719FF00281BD10D980090204691
:100C4000059B0C9A0699FFF7ABFF00283FD031E0D7
:100C5000FF2109312046FFF707FF00282AD0FF2097
:100C600009302550FF2125312046FFF7FDFE0028E1
:100C700005D0FF202530255066613E701AE00599A9
:100C80000C980F78069ABC46874213D205231B02A4
:100C9000E3189B696746D3550A78521CD2B20A7092
:100CA000411E8A4203D102200102085101E0824222
:100CB00000D02662019800280BD0FF260536314669
:100CC0002046FFF7D1FE002803D0A551002007B031
:100CD000F0BD0120FBE70000FFB5054687B00C46DC
:100CE0000020FF21109F053105906050FF21253124
:100CF0006050FF211D316050FF21093160500121FA
:100D000049022E4608512036B071F0700120206251
:100D1000A060B31D0097029320460A9A0999FFF735
:100D20003FFF2868002807D01148A860A868032161
:100D300009026118486018E023350A98009001976D
:100D400029462046099B029AFFF741FF0028F4D16B
:100D5000F078002809D00920C0012118486C4864A7
:100D6000002802D0FFF7BCFE059005980BB0F0BD3F
:100D700086020000FF221D32002383508B8A8A687E
:100D8000D25C8B8A5B1C8B82052109024018C261F0
:100D900070471FB500226B461A7019728168019165
:100DA000827506C8684690471FBD10B501780229B4
:100DB00001D0012902D14068FFF788FA10BD000078
:100DC0007CB50178264D002934D001290CD00229A8
:100DD0002DD16A461170C068691C01900122C81D9E
:100DE000FFF7F6FC684630E0406801781D48FFF7E1
:100DF00096FA01261B4C002803D069460E7001901C
:100E000006E0A068E168814205D0002069460870CC
:100E1000084669688847A068E168081AA18888427E
:100E200006D80F490122491CC81DFFF7D1FC7CBD23
:100E3000AE707CBD0B480A491030FFF753FA00280A
:100E400006D00320694608706846696888477CBDFB
:100E50000349012208460830FFF752FD7CBD00001F
:100E60000000002068020020F0B50C46012185B08A
:100E700005464902FFF702FE032109026F1800260A
:100E8000002826D0FF2125312846FFF7F2FD002853
:100E90001FD0FF2025302E5081208000B860A07E1A
:100EA000002801D1012068600221684601700920F4
:100EB000C0012918086808600390E17D6846017246
:100EC000E0680190E675267606CC6846083C9047B7
:100ED0002DE004212846FFF7D1FD002827D0FF216F
:100EE00009312846FFF7C5FD002820D021462846B5
:100EF000FFF7CCFDE07D617E884218D1207E00287E
:100F000007D0617EE268E0752069E060267666764B
:100F10000AE0A07E002801D10120686081208000C5
:100F2000B860E675617EE2682046FFF7C2FDFF27E4
:100F30001D3739462846FFF79CFD00280FD0A08AB0
:100F4000A17D884204D221462846FFF713FF06E020
:100F5000EE51A17D002902D02046FFF71AFFFF279E
:100F6000453739462846FFF784FD00280ED0EE515C
:100F7000A07E002801D001202860E07D002805D057
:100F8000E675617EE2682046FFF793FD05B0F0BD8F
:100F90000B00000009000000080000000A0000002B
:100FA0000100000000E0D7011516171811121314E4
:100FB000FFFFFFFFFFFFFFFFFFFFFFFFFFFFFFFF41
:100FC000000000000000000000E0D7010300000066
:100FD000F00F000000000020180000007402000064
:100FE0000810000018000020700A000084020000B1
:100FF0000000000000000000002000400000000091
:08100000000000000024F400D0
:04000005000000C136
:00000001FF
