:020000040000FA
:10000000F80D0020D5000000EF000000F100000016
:1000100000000000000000000000000000000000E0
:10002000000000000000000000000000F3000000DD
:100030000000000000000000F5000000F7000000D4
:10004000F9000000F9000000F1040000790300004D
:10005000F90000000000000011020000F90000009B
:10006000AD040000F9000000F9000000F9000000F4
:10007000F9000000F9000000F9000000F90000009C
:10008000F9000000F9000000F9000000F90000008C
:10009000F9000000F9000000F9000000F90000007C
:1000A000F9000000F900000000000000000000005E
:1000B0000000000000000000000000000000000040
:1000C0000348854600F070F8004800476D0D0000B9
:1000D000F80D00200321094802680A43026008481D
:1000E00002680A4302600748804707480047FEE766
:1000F000FEE7FEE7FEE7FEE7FEE70000240500401E
:10010000540500400D040000C10000000048704785
:100110002C1F000003460B439B0703D009E008C9CE
:10012000121F08C0042AFAD203E00B780370401CA7
:10013000491C521EF9D27047421C0178401C00290C
:10014000FBD1801A7047F0B51FB40646002082B07C
:1001500005464024019100901BE0019922460F467C
:10016000304600F043F8049A059B801A994110D359
:1001700010461946224600F029F8361A8F41019799
:10018000224601200021009F00F020F838184D4140
:1001900000902046641E0028DFDC019B0098294661
:1001A000324607B0F0BD0000064C0125064E05E0C2
:1001B000E36807CC2B430C3C98471034B442F7D388
:1001C000FFF782FF3C1F00005C1F000010B5202AD3
:1001D00004DB0146203A9140002010BD91402023CD
:1001E0009C1A0346E3401943904010BD10B5202AE5
:1001F00004DB0846203AD040002110BD0B46D34016
:10020000D0402024A21A91400843194610BD000096
:10021000F0B50024FF268BB0013601252746059452
:10022000304601F03BF8002807D05048406828428B
:1002300003D0304601F02AF82C43361D6D007F1C98
:10024000B6B2042FECD3FF257D35284601F026F801
:10025000002809D0284601F019F86807044305AAC8
:100260000121002000F0FEFF414F200714D001269D
:10027000002526420CD03F48AA00111808690969D8
:10028000C004C00E8903BA58890F002A00D09047D5
:1002900076006D1C042DECD3002C41DA0020069072
:1002A000401E334D079020352E7D0027B406A40E46
:1002B00070B2401C34D007A9204600F09DFD0028F4
:1002C0002ED0B0090190204600F0B4FC81002848EF
:1002D00046580198002E02D0032802D00CE00328D3
:1002E0001ED1E30806A89C466207C15C520F012399
:1002F000934019436346C15405200007A100081824
:10030000072109024018006805A98003800F0290A8
:10031000204600F071FD0028029803D0022803D087
:100320000BB0F0BD0328FBD10198032807D1029838
:10033000022818D00221204600F07AFF0127002E63
:1003400002D020460199B047002FE9D06A4601212A
:10035000002000F087FF059900988842E0D00590C2
:1003600006980790A0E70321E5E70000006300403E
:10037000840000200065004010B50249024800F0EA
:100380007BFC10BD50000020003000401CB5154C17
:1003900000202070FA216A4611710090012301AA01
:1003A0002821114800F0F6FD002801D000F05AFB8A
:1003B00020780028FCD0642000F03EFD0BA1032033
:1003C00001F08EF901F0DAF80028FBD102230E4A81
:1003D0002821054800F0CCFD002801D000F042FBA8
:1003E0001CBD000000000020EC1D00004150503AF0
:1003F000494E464F3A0D0A526561642077686F2076
:10040000616D20490D0A00001C00002010B500F0AD
:1004100089FC002805D01F491D484860C8131E49A3
:1004200088611E48018CC9B201290BD1828C120748
:1004300008D1028D1206120F042A03D1828D1206F2
:10044000120F0AD0012921D1818C09071ED1018DFB
:100450000906090F0A2904D007E0114A0121916019
:10046000F5E7828D1206120F05D00D290ED1808D71
:100470000006000F0AD10B480168012904D00A497F
:10048000016001680129FCD1C021416110BD00005B
:10049000DFFF07C000050040006C0040C00F00F007
:1004A0000006004000EC064075930000F8B50E4CC5
:1004B00004270025BE03A8003146A940FF30413083
:1004C0002258002A0BD003221202A21852680A42B4
:1004D00005D000212150054A5168126890476D1CD3
:1004E000EDB2BD42E7D3F8BD0080004078000020A7
:1004F00010B50249024801F0DDFB10BD34000020B8
:10050000002000400FB410B503A9044B044A029820
:1005100000F03EF810BC08BC04B018476B0C00009B
:10052000180000200FB41CB50246002007AC0029BB
:100530000BD0491E01910092064B6A46214606984F
:1005400000F026F8009A002111701CBC08BC04B011
:1005500018470000050A000030B47446641E257870
:10056000641CAB4200D21D46635D5B00E31830BCE7
:10057000184702E008C8121F08C1002AFAD17047C4
:100580007047002001E001C1121F002AFBD1704713
:10059000FFB591B00F460546002606E025280AD093
:1005A000149A139990476D1C761C28780028F5D171
:1005B000304615B0F0BD002400940121F34A0294A6
:1005C00000E004436D1C2B780846203B9840104205
:1005D000F7D128782A280ED0022128780246303A0E
:1005E000092A15D8009A0A235A43303A80180C4336
:1005F0006D1C0090F1E701CF0090002805DA012082
:1006000040030443009840420090022004436D1CC4
:1006100028782E2815D10420044368786D1C2A28D8
:100620000AD101CF6D1C02900BE002990A225143BE
:10063000303940186D1C029028780146303909295C
:10064000F3D928786C2810D006DC4C281AD06828FA
:100650000ED06A2817D104E0742813D07A2812D15A
:1006600010E00120400504430CE00121090501E0F0
:10067000032109050C436978814203D1012000055B
:1006800024186D1C6D1C287803906E281ED00CDC7D
:10069000632831D004DC00288AD0582811D1B2E078
:1006A00064287BD069280CD178E073282DD004DC35
:1006B0006F2870D0702804D1A7E075286CD07828F6
:1006C0006BD0149A13999047761C62E06002400F39
:1006D000022807D003280AD0042838680AD0066008
:1006E0003F1D56E03868F11706604160F8E738684A
:1006F0000680F5E70670F3E738786946087400204D
:10070000487404A80390012003E038680390002097
:10071000C0433F1D61070FD5002101E00199491C2D
:10072000029A0191914213DA8142F7DB019A03990F
:10073000895C0029F2D10BE0002101E00199491CFC
:1007400001918142FADB019A0399895C0029F5D174
:1007500001990098139A401A00902146149B00F0CA
:100760003BF901998019461807E00398039900782E
:10077000491C0391149A139990470198401E0190C7
:10078000401CF2D12146149B139A009800F014F9F2
:1007900086196D1C09E741E033E034E00A200021AE
:1007A000049005916002410F022905D001CFC217C4
:1007B0009446032905D007E0FF1DFF08FF0003CF83
:1007C00006E000B2C2179446042902D140B2C11714
:1007D0008C4600226146944506DA0A4600214042D2
:1007E00091418C462D2102E0210504D52B216A463A
:1007F0001176012103E0E10701D02021F7E7019103
:1008000054E00A200BE0102009E0102004900021A1
:100810000420044308200591029003E008200021F1
:10082000059104906002410F022905D001CF0022FA
:100830009446032906D006E0FF1DFF08FF0003CF02
:100840008C4603E080B2042900D1C0B2002101919E
:1008500021072BD50399702906D0049A1021059BF6
:100860004A401A4305D00EE040216A461176012124
:1008700008E06146014306D030216A4611760399AB
:10088000517602210191049A0821059B4A401A439E
:100890000CD16146014301D1610707D530216A4679
:1008A0001176012101910299491E0291039958295B
:1008B00004D037A103910FA90F910DE039A1F9E7F9
:1008C0006146059B049AFFF73EFC039B8C469B5CAC
:1008D0000F9A521E0F92137061460143F0D10F9888
:1008E00007A9081A20300390600704D501200004EE
:1008F0008443029801E0012002900399884201DDBF
:10090000401A00E000204118029001980918009850
:10091000401A0090E00306D42146149B139A0098D5
:1009200000F05AF886190020049008E006A9085C37
:10093000149A139990470498401C761C04900199CE
:100940008842F3DBE0030CD52146149B139A0098F0
:1009500000F042F8861904E0149A30201399904769
:10096000761C0299481E02900029F5DC08E00F98D9
:100970000F990078491C0F91149A13999047761C8F
:100980000399481E03900029F1DCFBE609280100C9
:1009900030313233343536373839616263646566F5
:1009A00000000000303132333435363738394142B7
:1009B0004344454600000000F8B5044600251E46A5
:1009C0001746880404D405E039462020B0476D1C42
:1009D000641EF9D52846F8BDFFB50446002581B050
:1009E0001E46C80301D5302700E02027880404D51F
:1009F00005E038460399B0476D1C641EF9D52846BA
:100A000005B0F0BD4A68002A06D00A68531C0B6086
:100A100010704868401E48607047000009A101201E
:100A200000F05EFE00F0A4FD00F0A8FD0028FBD160
:100A3000BFF34F8F0A490948C860BFF34F8F00BF0B
:100A4000FDE700004150505F4552524F523A455227
:100A5000524F523A466174616C0D0A000400FA0567
:100A600000ED00E00EB50021029000916A46019170
:100A70000148FFF7D3FF0EBD0140000010B58268AA
:100A8000C368934203D000F0DDF8002010BD0520BC
:100A900010BD10B58268C3689A1A83889A4203D839
:100AA00000F0DAF8002010BD042010BD10B501469A
:100AB0000C48FFF7EEFF040012D10B4800F030FBAA
:100AC00000280DD1084907480839FFF7D7FF00284B
:100AD00006D1054901220839034800F0C1FA04464D
:100AE000204610BDCC0000200C00002000B500F016
:100AF00005F800BD00B500F009F800BD72B6024867
:100B00000168491C0160704714000020034908680F
:100B1000401E086000D162B670470000140000203B
:100B2000F8B5074608680C460526411C0125360223
:100B3000002906D02946814019488160206800F0CC
:100B40006DFB6068411C02D0002100F05EFB39683B
:100B5000A06989194862607D217D3A68084391192E
:100B6000C866386806CC80194261C160207B083CA9
:100B7000012814D1A068411C02D0002100F045FBDF
:100B8000E068411C05D0854005488560E06800F0BC
:100B900045FB3A68E1689219A06891601061F8BD60
:100BA00000050050002901DA002070470268511842
:100BB000016001207047000070B5461C0D460124FD
:100BC0000020FFF793FF134A1068286011685068EF
:100BD0009368081A1D1A701C6D1CA84212D9002DAA
:100BE0000ED00D480D4C0088246880051940800DFA
:100BF000A402890020438918C8601068401C106056
:100C0000002401E0881910600020FFF773FF2046E0
:100C100070BD0000DC010020841E00002C000020BC
:100C2000034803C8814201D101207047002070476A
:100C3000DC01002002490918142008567047000002
:100C400084000020826883881A4003689A5C0A70D6
:100C50008168491C81607047C26883881A400368B4
:100C60009954C168491CC160704710B50446C0B2B0
:100C7000FFF71CFF204610BD7FB50C460D46203502
:100C80000646697828780191009022462632D11EC6
:100C90003046E36900F0D1FE002819D1E878002839
:100CA0001DD1207B022801D0032818D12269E169D7
:100CB000914214D16269E261E37B2B70217E890647
:100CC000C90F6970032804D03146204600F04EFE5B
:100CD0007FBD00913146204600F034FF7FBD2046A5
:100CE0000C3007C801AB07C3E878002100280ED0FC
:100CF0000920C0013218506C5064820701D50120D0
:100D000002E0400705D502206A46107001E06846FF
:100D100001702971207E4007E0D42268684661682E
:100D200090477FBD1048018CC9B2012917D1818C31
:100D3000090714D1018D09060A0F03D1828D12060D
:100D4000120F0ED0090F012903D1828D1206120F46
:100D500007D0032903D1808D0006000F01D00020A9
:100D60007047012070470000C00F00F0002000F025
:100D7000E3FC002801D0FFF775FE14A1032000F06A
:100D8000AFFC00F0FBFB0028FBD100F0C5FD174CC9
:100D9000174D184F66012968204600BF00BF00BFED
:100DA00000BF00BF00BF00BF00BFB14200D000BF06
:100DB0000138F2D120BF38780028FBD0FFF7E6FADF
:100DC00000F0DCFB0028FBD1E5E700004150503A81
:100DD000494E464F3A0D0A5457492073656E736F5A
:100DE00072206578616D706C650D0A0020A10700A6
:100DF0003000002000000020C20843075B0F0120E4
:100E0000895C98400840704700280FD00849094A7B
:100E1000096800BF00BF00BF00BF00BF00BF00BF28
:100E200000BF914200D000BF0138F2D170470000EE
:100E3000300000200024F40000280FD00849094A9F
:100E4000096800BF00BF00BF00BF00BF00BF00BFF8
:100E500000BF914200D000BF0138F2D170470000BE
:100E6000300000200024F4008207D30EFF229A40B5
:100E70008907090E10B5994000280BDA03071B0FEC
:100E8000083B9C080C4BA400E318DC6994430C431A
:100E9000DC6107E08408094BA400E418236893434D
:100EA0000B432360C106C90E012088400449086035
:100EB0000449086010BD000000ED00E000E400E01F
:100EC00080E200E000E100E0017928225143054A78
:100ED0000068891805221302C01802600220203120
:100EE0008870704750000020F8B507460C4600791E
:100EF000282148431B4945182E462036B078002843
:100F000001D00820F8BD0CC5002028607071307138
:100F1000A07BF071607B083D002802D0204600F0E5
:100F200085FC216810488A001049521810606268D8
:100F3000920051180860052338681B0206CCC018BF
:100F40008160C260216841622868083C002805D0A1
:100F50003868217B000B40B2FFF786FF0120B0709C
:100F60000020F8BD500000200C06000000070050D3
:100F70003EB5074D2C68AD68009402956C466170D3
:100F8000A37001920022694600F016F83EBD0000F1
:100F9000DC1D00003EB50025069C009502956D46BF
:100FA0006970AB700192002C01D0202200E0002279
:100FB000294600F001F83EBD70B50D4601792823A1
:100FC0005943064BCC18910701D0062070BD13463B
:100FD00001682A46204600F003FE70BD5000002044
:100FE000F8B506460F4600791C2148431A491546B4
:100FF0004418E07E002801D00820F8BD394630466C
:10100000FFF78EFD656038692060284600250028BE
:1010100013D0FF223068397F1D328550FF2230689F
:1010200045328550032330681B020C4AC0184260C9
:101030003068000B40B2FFF717FF0522306804212B
:10104000120280180160E5752576A5750121E1760B
:101050002846A576F8BD000034000020800002007C
:1010600070B505460C4600791C21484308494318D1
:10107000284600F055F8002801D0112070BD9A755F
:1010800000209C609882284600F004F870BD0000A3
:1010900034000020F8B5044600791C2148431F495C
:1010A00000264518FF2720681D37C65120680121FA
:1010B00081602946206800F0D9FD6968002913D0B5
:1010C00027E0FF270137FF211D31206800F04BFB8F
:1010D000002802D1A88AB842F5D1A88AB84203D024
:1010E0002946206800F0C2FDA88AA97D8842E8D37D
:1010F000A98AC81FF9380ED0FF271D373946206846
:1011000000F031FB0028F9D020680121C1600020E7
:10111000A8753046F8BD0F26F9E70000340000201E
:1011200000791C21484303494018807D002800D0E5
:101130000120704734000020F8B501791C2251438A
:10114000204A00238D1805220168120289180B60BD
:10115000696800290CD00324016824021A4B09197C
:101160008B600168C903CB0E01219940174B1960B0
:101170000522016812028A18D368566997681469B3
:101180000021C9435161D160006805221202801814
:1011900081600161581C02D0184600F02DF8701CC7
:1011A00002D0304600F028F8601C02D0204600F043
:1011B00023F8781C02D0384600F01EF80020E876AC
:1011C0006860F8BD340000208402020080E100E085
:1011D00070B552000A439900049D0A432902059EF6
:1011E0000A43310405240A4324078000072100191B
:1011F00009024018026070BD1CB5002100910B4629
:1012000001220191FFF7E4FF1CBD1CB500220B4633
:10121000009211460192FFF7DBFF1CBD1CB50021B7
:1012200000910B46012201911146FFF7D1FF1CBD31
:101230000522120780008218072000021018026899
:1012400003231B049A430260026809040A430260F4
:101250007047000001218140014881607047000013
:101260000005005038B5084B05241B680093240284
:101270006B46411805E085005D592D192D69401C0C
:1012800020C28142F7D838BDE81D0000024940184D
:1012900000210160704700000060004003494018D1
:1012A0000068012800D00020704700000060004066
:1012B000004870473113000030B5194C05462078BE
:1012C00089B0002805D06078854202D1002009B09D
:1012D00030BD202213496846FEF71CFF00206946F6
:1012E0000875092000900B200190082003900A2027
:1012F00002900D4806900A48001DFFF71DFF002DC3
:1013000001D0002200E0094A05486946001DFFF7A8
:1013100067FE0028DBD1012020706570D6E7000051
:1013200020000020641E000000E0D701A51C000082
:10133000F0B5C5B00C46002100914D984B991E4662
:10134000081817460390002C01D00A2000E0002066
:10135000019000F033FA00287ED104AD002E17D1A1
:1013600000986A462918204600F046FA002875D0F1
:101370003846FEF7E1FEC22800D9C2200446009894
:10138000224628183946FEF7C5FE0098001900903D
:10139000009901980A1804A84418313285180020D1
:1013A00003E020212170401C641C01998842F8D37D
:1013B00000270398864207D3202020706070A07019
:1013C0002870E41C6D1C2CE04B98864202D24A988F
:1013D000805D02E0311A4C98405C2246844601212F
:1013E00002908B006046D8400007000F092801D901
:1013F000373000E0303001235B1AD054491EF0D260
:1014000020209070D41CFEF781FE01680298085CD1
:101410008006C00E01D0029800E02E2028706D1CBE
:10142000761C7F1C102FC4D30D2028700A206870F2
:1014300020202070009901980918433104A80091D8
:1014400000F0C4F9002809D000F0B8F9002805D14F
:1014500000900398864200E000E099D3304645B002
:10146000F0BDFFB5C7B00025509F1C46059500F0A4
:10147000A5F9002875D1059806AE311805AA489837
:1014800000F0BAF9002836D03846FF2701370300AC
:10149000FFF762F80705131B333F4B5725004998A8
:1014A000FEF74AFE059905464018FF2817D8701820
:1014B0002A464999FEF72EFE11E005982368391A4D
:1014C0003018499AFFF72EF808E0606800900598F8
:1014D0002368391A3018499AFFF724F80546294637
:1014E00005A8FFF75FFB059900283AD0B94238D824
:1014F00006A800F06BF94BB0F0BDA16860680090E1
:10150000019105982368391A3018499AFFF70AF8AB
:10151000E4E7201D07C86B4607C305982368391AFE
:101520003018499AFEF7FEFFD8E7201D0FC86D4618
:101530000FC505982368391A3018499AFEF7F2FF4B
:10154000CCE7204608300FC801AD0FC56068009099
:1015500005982368391A3018499AFEF7E3FFBDE76A
:10156000FFE70020C7E70000004870476314000051
:1015700010B50120FFF7A0FE10BD0000F0B595B03A
:10158000FFF74EFB002802D0002015B0F0BD4B48FD
:101590004468866821463140890009180C94CD685A
:1015A0000BE02904A80D890D40180419204630408D
:1015B000810042480C940818C568641CA807F0D044
:1015C00000200890A807800F3D4B022807D0AA0AE8
:1015D000A805000F84460EA99646002059E0204633
:1015E000304081003548641C0818C0680494864661
:1015F0002804800D84463440301B8000AF0D001D50
:10160000874222D92D490C31002807D02B4AA4004B
:10161000A21814460C34C2B2381A03E00C4600215A
:10162000FAB20846C0B20390019202910094A80653
:101630005C69400F634672460899A047B84213D1CF
:10164000FF1C0498B9080C1830E01C48A2001018C0
:1016500000210C300090029101970391A8065C696B
:10166000400F63467246E8E7164980050D40000CBE
:1016700005430C983040810010480818C56017E0F9
:1016800027463740BA000D4F401CD719FF68641C2D
:1016900080C167466045F3D3A80600971D69400FD7
:1016A0000EAB72460899A847002801D00348446051
:1016B000FFF7B6FA0121484067E70000DC0100208F
:1016C000DC0500203F00FFFF00B5044AFF239360C4
:1016D00000231360536000F029F800BDDC010020F6
:1016E000F8B5104D0E46074600206946AC68FFF776
:1016F00063FA002815D00C483C218088884379077C
:10170000890E08430F21890188438105890DB002A4
:10171000014300980246224092005219401CD160B9
:101720000090F8BDDC010020841E0000014A5161D8
:1017300010617047DC05002070B506460020FFF7F9
:10174000BBFD040008D1FFF7B3FD0546FFF70CFF12
:1017500032462946FFF7B8FF204670BD40580028A2
:1017600000D0012070474058002800D00120704769
:101770000322120280184068084000D00120704700
:1017800030B5FF220523CD7D002409321B02C3188A
:10179000002D8450986905D04B7ECA68D054487E8D
:1017A000401C487630BD1FB501246B461C70197271
:1017B000019206C8684690471FBD000010B5024858
:1017C000FFF7AEFC10BD00002400002070B50D46F0
:1017D0000A46014601240648FEF79CFCEAB2044989
:1017E0000448FFF73DFC002800D00024204670BDCF
:1017F000DC0000202400002010B514460246012021
:10180000002A0BD008461368FF2106A20131FEF71B
:1018100089FE01462046FFF7C5F910BD0021216071
:1018200010BD00005B253038645D0000F8B504464B
:101830002168224D890020484919086061688900A3
:10184000491908602068FFF705FD6068FFF702FD91
:1018500019482168401C890049190860616889009D
:10186000491908600420FFF7CFFA0026144F01251C
:1018700021793869C840C007C00F02D0002E19D0A6
:101880000FE0217828468840F8600420FFF7BCFA72
:101890002068FFF7DFFC0420FFF7B6FA761C092E5C
:1018A000E6DB20798540FD600420FFF7ADFA606833
:1018B000FFF7D0FCF8BD00000C0600000007005048
:1018C0000005005010B50178002914D100790128D5
:1018D0000ED10C480B4A00780109507812780002AA
:1018E0001043012940BA07D001B207A0FEF70AFE53
:1018F00008490120087010BD00050121000D0903F1
:10190000411AF2E71C00002056616C75653A2025EB
:10191000640D0A00000000201FB50A4B6C460FCB77
:101920000FC408480023084A69466838FFF7DCFA04
:10193000002801D0FFF796F802486838FFF7C4FA8C
:101940001FBD0000541E0000C51800000146032002
:10195000CA0701D0412040028A0700D50248490742
:1019600001D50148401C704701820000FFB50C46BC
:1019700085B000210491FF21053100261F466650E5
:10198000FF2125316650FF211D316650FF210931AD
:10199000665005462035E11DFF31AE71FA31EE701B
:1019A000012F0FD001220A6001212162216001680C
:1019B000002909D014498160806803210902611857
:1019C00048601DE00222EEE70146263123300391F4
:1019D0000290009701962046079B039A029900F017
:1019E0002CF80028F5D1E878002809D00920C0019A
:1019F0002118486C4864002802D0FFF7A7FF049024
:101A0000049809B0F0BD00008602000030B51C78D3
:101A1000039D944208D205221202095D8018C1611B
:101A20001878401C187006E00121002D02D0C16119
:101A3000002030BD4161012030BDFFB50F4609785F
:101A400083B00446002904D1059802780C9882429C
:101A500001D1012000E000200190FF202530002569
:101A6000002907D02550FF201D302550FF200930C8
:101A7000255055E0FF2125312046FFF76FFE012656
:101A800000282CD1FF211D312046FFF767FE0028DA
:101A900014D0FF201D302550FF2125312046FFF7AF
:101AA0005DFE00281BD10D9800902046059B0C9AE6
:101AB0000699FFF7ABFF00283FD031E0FF21093145
:101AC0002046FFF74BFE00282AD0FF200930255082
:101AD000FF2125312046FFF741FE002805D0FF20D9
:101AE0002530255066613E701AE005990C980F78F4
:101AF000069ABC46874213D205231B02E3189B6952
:101B00006746D3550A78521CD2B20A70411E8A42E7
:101B100003D102200102085101E0824200D0266276
:101B2000019800280BD0FF26053631462046FFF7E6
:101B300015FE002803D0A551002007B0F0BD0120FC
:101B4000FBE70000FFB5054687B00C460020FF21EB
:101B5000109F053105906050FF2125316050FF2115
:101B60001D316050FF2109316050012149022E468C
:101B700008512036B071F07001202062A060B31DC2
:101B80000097029320460A9A0999FFF73FFF2868B9
:101B9000002807D01148A860A8680321090261182D
:101BA000486018E023350A9800900197294620469E
:101BB000099B029AFFF741FF0028F4D1F078002832
:101BC00009D00920C0012118486C4864002802D0BF
:101BD000FFF7BCFE059005980BB0F0BD8602000033
:101BE000F8B5044600250320ED430002081885607F
:101BF000254620352E79002E03D0A16841601120A2
:101C0000F8BD5807C017401C2871180701D50620D9
:101C1000F8BDA361C1CA0C34C1C40C3A90782870D5
:101C200050680B266060F60150788E19B06010780D
:101C30000026183C01280ED0002801D1980601D5B5
:101C4000012000E0002068700090937852682046E0
:101C5000FFF778FF05E06E70937852682046FFF733
:101C600085FE21680029D3D12E71F8BDFF221D32D7
:101C7000002383508B8A8A68D25C8B8A5B1C8B82A0
:101C8000052109024018C26170471FB500226B464A
:101C90001A70197281680191827506C8684690476A
:101CA0001FBD00000078012801D1014988707047EC
:101CB00020000020F0B50C46012185B00546490200
:101CC000FFF756FD032109026F180026002826D0D1
:101CD000FF2125312846FFF746FD00281FD0FF20B1
:101CE00025302E5081208000B860A07E002801D1D0
:101CF000012068600221684601700920C00129188E
:101D0000086808600390E17D68460172E068019010
:101D1000E675267606CC6846083C90472DE00421FF
:101D20002846FFF725FD002827D0FF210931284646
:101D3000FFF719FD002820D021462846FFF720FD97
:101D4000E07D617E884218D1207E002807D0617E28
:101D5000E268E0752069E060267666760AE0A07E9B
:101D6000002801D10120686081208000B860E675FC
:101D7000617EE2682046FFF716FDFF271D373946D2
:101D80002846FFF7F0FC00280FD0A08AA17D8842EA
:101D900004D221462846FFF769FF06E0EE51A17DF7
:101DA000002902D02046FFF770FFFF27453739464C
:101DB0002846FFF7D8FC00280ED0EE51A07E002860
:101DC00001D001202860E07D002805D0E675617E05
:101DD000E2682046FFF7E7FC05B0F0BD0100000017
:101DE0000000000000000000000000500030004033
:101DF0000000000000800040000400000000030319
:101E000000000000112620202447274728372937C3
:101E10002A1F2B3D2C122D08300A3112322033207C
:101E2000340C3614371445054A334B334C334E804B
:101E30004F0C501451705220056F00000B00000031
:101E400009000000080000000A0000000100000076
:101E500000E0D70106000000050000000000680651
:101E600001000000FFFFFFFFFFFFFFFFFFFFFFFF7D
:101E7000FFFFFFFF000000000000000000E0D701AE
:101E80000300000029000000010000000100000024
:101E9000010000000100000001000000010000003E
:101EA000010000000200000000404040404040406F
:101EB000404041414141414040404040404040401D
:101EC00040404040404040404005020202020202C1
:101ED0000202020202020202022020202020202010
:101EE0002020200202020202020290909090909024
:101EF00010101010101010101010101010101010E2
:101F00001010101002020202020288888888888855
:101F10000808080808080808080808080808080841
:101F2000080808080202020240000000A91E000082
:101F30004F766572666C6F770D0A00005C1F0000BB
:101F4000000000203400000072050000901F000017
:101F500034000020C40D00008205000000000000D5
:101F60000000000000000000002000400000000011
:101F70000000000000000000000000000000000061
:101F80000020004000000000301F00000024F4008A
:04000005000000C136
:00000001FF
