:020000040000FA
:10000000580F0020D5000000EF000000F1000000B4
:1000100000000000000000000000000000000000E0
:10002000000000000000000000000000F3000000DD
:100030000000000000000000F5000000F7000000D4
:10004000F9000000F900000025060000610300002F
:10005000F900000000000000F9010000F9000000B4
:10006000E1050000F9000000F9000000F9000000BF
:10007000F9000000F9000000F9000000F90000009C
:10008000F9000000F9000000F9000000F90000008C
:10009000F9000000F9000000F9000000F90000007C
:1000A000F9000000F900000000000000000000005E
:1000B0000000000000000000000000000000000040
:1000C0000348854600F064F800480047FD0E000034
:1000D000580F00200321094802680A4302600848BB
:1000E00002680A4302600748804707480047FEE766
:1000F000FEE7FEE7FEE7FEE7FEE70000240500401E
:100100005405004041050000C100000003460B43B8
:100110009B0703D009E008C9121F08C0042AFAD2BD
:1001200003E00B780370401C491C521EF9D2704743
:10013000F0B51FB40646002082B005464024019168
:1001400000901BE0019922460F46304600F042F82D
:10015000049A059B801A994110D3104619462246ED
:1001600000F028F8361A8F4101972246012000211D
:10017000009F00F01FF838184D4100902046641E83
:100180000028DFDC019B00982946324607B0F0BD0D
:10019000064C0125064E05E0E36807CC2B430C3CDA
:1001A00098471034B442F7D3FFF78EFF8821000040
:1001B000A821000010B5202A04DB0146203A914016
:1001C000002010BD914020239C1A0346E3401943B0
:1001D000904010BD10B5202A04DB0846203AD040DC
:1001E000002110BD0B46D340D0402024A21A9140DC
:1001F0000843194610BD0000F0B50024FF268BB05F
:100200000136012527460594304601F04DFA0028B5
:1002100007D050484068284203D0304601F03CFAED
:100220002C43361D6D007F1CB6B2042FECD3FF2586
:100230007D35284601F038FA002809D0284601F01B
:100240002BFA6807044305AA0121002001F010FAE7
:10025000414F200714D00126002526420CD03F48EC
:10026000AA00111808690969C004C00E8903BA58A8
:10027000890F002A00D0904776006D1C042DECD326
:10028000002C41DA00200690401E334D07902035A7
:100290002E7D0027B406A40E70B2401C34D007A9EE
:1002A000204600F077FE00282ED0B00901902046AD
:1002B00000F088FD8100284846580198002E02D0A1
:1002C000032802D00CE003281ED1E30806A89C46B0
:1002D0006207C15C520F0123934019436346C15426
:1002E00005200007A100081807210902401800682E
:1002F00005A98003800F0290204600F04BFE0028E5
:10030000029803D0022803D00BB0F0BD0328FBD124
:100310000198032807D10298022818D0022120460C
:1003200001F080F90127002E02D020460199B04744
:10033000002FE9D06A460121002001F099F90599C2
:1003400000988842E0D0059006980790A0E7032126
:10035000E5E7000000630040E40200200065004083
:1003600010B50249024800F04FFD10BDB002002058
:1003700000300040F0B587B002200025029000F068
:10038000A9F8274F384600F00DFE264E00203070A9
:1003900004460020009023486100C01C0A18022374
:1003A0002821214800F04EFF00280FD000F0C2FBAA
:1003B0000CE038466D1C00F0F5FD0298854205DB27
:1003C0001AA000F039F9002007B0F0BD30780028FD
:1003D000EFD0642000F0E6FD641C322CD9DB17A0BE
:1003E000006800240390022303AA282100940E48E9
:1003F00000F028FF642000F0D5FD11A000680490F3
:10040000022304AA28210094074800F01BFF64205F
:1004100000F0C8FD0BA000F00FF90120D4E70000A8
:1004200020A1070000000020C82000000D0A546928
:100430006D65204F75740D0A00000000001000006B
:10044000600200000D0A53583933323420496E6976
:100450007469616C697A65642E0D0A001CB5134CD1
:100460000020207065216A4611710090012301AAC5
:1004700028210F4800F0E6FE002801D000F05AFBCA
:1004800020780028FCD0642000F08CFD09A000F04A
:10049000D3F8064A0223521C2821054800F0C0FE6A
:1004A000002801D000F046FB1CBD00000000002029
:1004B000C82000000D0A52656164204469666665C3
:1004C00072656E7469616C2056616C75653A200DB9
:1004D0000A0000001CB5124C00202070694608710B
:1004E0000090012301AA28210E4800F0ABFE00284D
:1004F00001D000F01FFB20780028FCD0642000F021
:1005000051FD09A000F098F8054A0223521C282149
:10051000044800F085FE002801D000F00BFB1CBD54
:1005200000000020C82000000D0A526561642052BE
:1005300065675F497271537263200D0A0000000005
:1005400010B500F0B7FC002805D01F491D484860D1
:10055000C8131E4988611E48018CC9B201290BD1FC
:10056000828C120708D1028D1206120F042A03D1C1
:10057000828D1206120F0AD0012921D1818C090720
:100580001ED1018D0906090F0A2904D007E0114A7E
:1005900001219160F5E7828D1206120F05D00D2919
:1005A0000ED1808D0006000F0AD10B480168012989
:1005B00004D00A49016001680129FCD1C0214161D0
:1005C00010BD0000DFFF07C000050040006C0040C8
:1005D000C00F00F00006004000EC064075930000DC
:1005E000F8B50E4C04270025BE03A8003146A940EB
:1005F000FF3041302258002A0BD003221202A218E9
:1006000052680A4205D000212150054A51681268FB
:1006100090476D1CEDB2BD42E7D3F8BD00800040AD
:10062000D802002010B50249024801F0B9FC10BD03
:1006300094020020002000400FB410B503A9044B21
:10064000044A029800F018F810BC08BC04B018471F
:10065000FB0D00007C00002002E008C8121F08C14A
:10066000002AFAD170477047002001E001C1121F33
:10067000002AFBD170470000FFB591B00F46054638
:10068000002606E025280AD0149A139990476D1C7D
:10069000761C28780028F5D1304615B0F0BD00242E
:1006A00000940121F34A029400E004436D1C2B786E
:1006B0000846203B98401042F7D128782A280ED0CF
:1006C000022128780246303A092A15D8009A0A23CE
:1006D0005A43303A80180C436D1C0090F1E701CF6B
:1006E0000090002805DA01204003044300984042AE
:1006F0000090022004436D1C28782E2815D1042078
:10070000044368786D1C2A280AD101CF6D1C029021
:100710000BE002990A225143303940186D1C0290B7
:100720002878014630390929F3D928786C2810D067
:1007300006DC4C281AD068280ED06A2817D104E0AD
:10074000742813D07A2812D110E001204005044308
:100750000CE00121090501E0032109050C4369783A
:10076000814203D10120000524186D1C6D1C2878DE
:1007700003906E281ED00CDC632831D004DC0028E6
:100780008AD0582811D1B2E064287BD069280CD1D6
:1007900078E073282DD004DC6F2870D0702804D145
:1007A000A7E075286CD078286BD0149A13999047DD
:1007B000761C62E06002400F022807D003280AD0AE
:1007C000042838680AD006603F1D56E03868F117E3
:1007D00006604160F8E738680680F5E70670F3E7E1
:1007E0003878694608740020487404A803900120F2
:1007F00003E0386803900020C0433F1D61070FD518
:10080000002101E00199491C029A0191914213DAF9
:100810008142F7DB019A0399895C0029F2D10BE050
:10082000002101E00199491C01918142FADB019A02
:100830000399895C0029F5D101990098139A401A0F
:1008400000902146149B00F03BF90199801946184D
:1008500007E0039803990078491C0391149A1399AF
:1008600090470198401E0190401CF2D12146149BF4
:10087000139A009800F014F986196D1C09E741E0FD
:1008800033E034E00A200021049005916002410F1A
:10089000022905D001CFC2179446032905D007E0ED
:1008A000FF1DFF08FF0003CF06E000B2C217944609
:1008B000042902D140B2C1178C46002261469445FA
:1008C00006DA0A460021404291418C462D2102E081
:1008D000210504D52B216A461176012103E0E107A9
:1008E00001D02021F7E7019154E00A200BE010200D
:1008F00009E0102004900021042004430820059101
:10090000029003E008200021059104906002410F4D
:10091000022905D001CF00229446032906D006E023
:10092000FF1DFF08FF0003CF8C4603E080B20429BF
:1009300000D1C0B20021019121072BD50399702964
:1009400006D0049A1021059B4A401A4305D00EE0B8
:1009500040216A461176012108E06146014306D034
:1009600030216A4611760399517602210191049A49
:100970000821059B4A401A430CD16146014301D12D
:10098000610707D530216A4611760121019102994C
:10099000491E02910399582904D037A103910FA948
:1009A0000F910DE039A1F9E76146059B049AFFF725
:1009B000BFFB039B8C469B5C0F9A521E0F921370D9
:1009C00061460143F0D10F9807A9081A203003901F
:1009D000600704D5012000048443029801E001204F
:1009E00002900399884201DD401A00E0002041187E
:1009F0000290019809180098401A0090E00306D46C
:100A00002146149B139A009800F05AF8861900208A
:100A1000049008E006A9085C149A1399904704987A
:100A2000401C761C049001998842F3DBE0030CD54E
:100A30002146149B139A009800F042F8861904E0AE
:100A4000149A302013999047761C0299481E029000
:100A50000029F5DC08E00F980F990078491C0F91E8
:100A6000149A13999047761C0399481E0390002905
:100A7000F1DCFBE6092801003031323334353637FA
:100A800038396162636465660000000030313233DA
:100A9000343536373839414243444546000000007A
:100AA000F8B5044600251E461746880404D405E020
:100AB00039462020B0476D1C641EF9D52846F8BD84
:100AC000FFB50446002581B01E46C80301D5302776
:100AD00000E02027880404D505E038460399B04794
:100AE0006D1C641EF9D5284605B0F0BD09A1012092
:100AF00000F0CCFE00F01EFE00F022FE0028FBD12C
:100B0000BFF34F8F0A490948C860BFF34F8F00BF3A
:100B1000FDE700004150505F4552524F523A455256
:100B2000524F523A466174616C0D0A000400FA0596
:100B300000ED00E00EB50021029000916A4601919F
:100B40000148FFF7D3FF0EBD0140000010B58268D9
:100B5000C368934203D000F03DF9002010BD05208A
:100B600010BD002906D0002A02D0531E134203D024
:100B7000092070470E20704701608380002181604A
:100B8000C1600846704710B58268C3689A1A8388A6
:100B90009A4203D800F028F9002010BD042010BDAF
:100BA000F0B5274E89B01F460D00044672601CD078
:100BB000A888296882B22348FFF7D3FF002815D1FF
:100BC000A889A96882B21F481030FFF7CAFF002821
:100BD0000CD120221C496846FFF798FA60690690FC
:100BE000207C002804D0012103E0072009B0F0BDDB
:100BF0000021684601750777607C002800D00E2030
:100C000069464875E0680290A068039020680190EA
:100C1000606800900A480D4A083000F039FB00284F
:100C2000E4D1B0702068401CE0D00548083000F0E6
:100C30009DFB03490122491CC81D00F069FBD5E753
:100C4000680000201C03002018210000891E0000FD
:100C500010B501460C48FFF796FF040012D10B486F
:100C600000F04EFC00280DD1084907480839FFF76D
:100C70006DFF002806D1054901220839034800F01C
:100C8000DFFB0446204610BD2C030020700000202E
:100C900000B500F005F800BD00B500F009F800BD92
:100CA00072B602480168491C016070477800002054
:100CB00003490868401E086000D162B67047000012
:100CC00078000020F8B5074608680C460526411C48
:100CD00001253602002906D0294681401948816045
:100CE000206800F095FC6068411C02D0002100F0F3
:100CF0007CFC3968A06989194862607D217D3A6869
:100D000008439119C866386806CC80194261C160F1
:100D1000207B083C012814D1A068411C02D000218E
:100D200000F063FCE068411C05D085400548856003
:100D3000E06800F06DFC3A68E1689219A068916083
:100D40001061F8BD0005005070B5461C0D46012429
:100D50000020FFF79DFF134A106828601168506853
:100D60009368081A1D1A701C6D1CA84212D9002D18
:100D70000ED00D480D4C0088246880051940800D68
:100D8000A402890020438918C8601068401C1060C4
:100D9000002401E0881910600020FFF77DFF204645
:100DA00070BD00003C030020582100008C00002092
:100DB000034803C8814201D10120704700207047D9
:100DC0003C0300200249091814200856704700000F
:100DD000E4020020826883881A4003689A5C0A70E3
:100DE0008168491C81607047C26883881A40036823
:100DF0009954C168491CC160704710B50446C0B21F
:100E0000FFF726FF204610BD7FB50C460D46203566
:100E10000646697828780191009022462632D11E34
:100E20003046E36900F0F1FE002819D1E878002887
:100E30001DD1207B022801D0032818D12269E16945
:100E4000914214D16269E261E37B2B70217E8906B5
:100E5000C90F6970032804D03146204600F06EFEA9
:100E60007FBD00913146204600F054FF7FBD2046F3
:100E70000C3007C801AB07C3E878002100280ED06A
:100E80000920C0013218506C5064820701D501203E
:100E900002E0400705D502206A46107001E068466E
:100EA00001702971207E4007E0D42268684661689D
:100EB00090477FBD1048018CC9B2012917D1818CA0
:100EC000090714D1018D09060A0F03D1828D12067C
:100ED000120F0ED0090F012903D1828D1206120FB5
:100EE00007D0032903D1808D0006000F01D0002018
:100EF0007047012070470000C00F00F0002401255A
:100F00002846A040C001000F02D0204600F076FB2A
:100F1000641C202CF4D30F20134C4005A06000204B
:100F2000E06001F00DF800F0D3FD00F01FFD0FA010
:100F3000FFF782FBFFF71EFA012000F05FFB0220A3
:100F4000E06000F05BFB0420E0600C4C0CA0FFF7BD
:100F500073FB022000F080FB204600F023F8012004
:100F600000F07AFBF2E70000000500500D0A537410
:100F700061727420546573740D0A000040420F00C2
:100F80000D0A204C6967687473205377697463682D
:100F9000200D0A00C20843075B0F0120895C9840BE
:100FA0000840704700280FD00849094A096800BF67
:100FB00000BF00BF00BF00BF00BF00BF00BF914225
:100FC00000D000BF0138F2D170470000900000202F
:100FD0000024F40000280FD00849094A096800BF1E
:100FE00000BF00BF00BF00BF00BF00BF00BF9142F5
:100FF00000D000BF0138F2D17047000090000020FF
:101000000024F4008207D30EFF229A408907090EBC
:1010100010B5994000280BDA03071B0F083B9C080A
:101020000C4BA400E318DC6994430C43DC6107E03B
:101030008408094BA400E418236893430B432360FE
:10104000C106C90E012088400449086004490860AF
:1010500010BD000000ED00E000E400E080E200E0F0
:1010600000E100E070B5012424048C4003260568EB
:101070003602AD19002B01D06C6000E0AC60006856
:1010800089000818052109024018026470BD00009B
:10109000016801220A6000790C225043024A0221B1
:1010A0008018017270470000D8020020F0B5FF25BB
:1010B000023504688D40FF34FF340234059E2768F2
:1010C000AF4327600468FF34FF34023425681D43B2
:1010D00025603346FFF7C6FFF0BD000070B504463B
:1010E0000D4600790C21484322494618307A0028E1
:1010F00001D0082070BD002A05D032606868706099
:101100000020034608E0072070BD8100FF312268FF
:1011100041315350401CC0B261798142F5D82068FA
:10112000E978000B40B2FFF76DFF0520216800024F
:1011300009186A784B68D2075B085B00D20F13432B
:101140004B602168AA7809188B6892079B089B005E
:10115000920F13438B6022682978101802690907DF
:1011600012091201090F0A430261012030720020A6
:1011700070BD0000D8020020017928225143054AA1
:101180000068891805221302C0180260022020316D
:1011900088707047B0020020F8B507460C46007909
:1011A000282148431B4945182E462036B078002890
:1011B00001D00820F8BD0CC5002028607071307186
:1011C000A07BF071607B083D002802D0204600F033
:1011D00009FC216810488A001049521810606268A2
:1011E000920051180860052338681B0206CCC0180D
:1011F0008160C260216841622868083C002805D0EF
:101200003868217B000B40B2FFF7FCFE0120B07074
:101210000020F8BDB00200200C06000000070050BE
:101220003EB5074D2C68AD68009402956C46617020
:10123000A37001920022694600F016F83EBD00003E
:10124000082100003EB50025069C009502956D46DC
:101250006970AB700192002C01D0202200E00022C6
:10126000294600F001F83EBD70B50D4601792823EE
:101270005943064BCC18910701D0062070BD134688
:1012800001682A46204600F093FD70BDB0020020A0
:10129000F8B506460F4600791C2148431A49154601
:1012A0004418E07E002801D00820F8BD39463046B9
:1012B000FFF708FD65603869206028460025002892
:1012C00013D0FF223068397F1D328550FF223068ED
:1012D00045328550032330681B020C4AC018426017
:1012E0003068000B40B2FFF78DFE05223068042104
:1012F000120280180160E5752576A5750121E17659
:101300002846A576F8BD0000940200208000020067
:10131000F8B503791C246343134C81251C1903275A
:1013200066680023AD003F02002E02D00668F61961
:10133000B560E67D002E0ED0237E002B07D06168BD
:10134000002902D00068C01945601120F8BD216154
:101350000123227604E0E2750025E16065762576BA
:1013600000F01AF8F8BD00009402002070B50446A1
:1013700000791C21074D48434019807E002808D180
:10138000204600F0D8FA20791C2201215043401950
:10139000817670BD94020020F8B5044600791C21C6
:1013A000484326494518A87E184302D1204600F03C
:1013B000C2FA6868002808D08121032220688900C9
:1013C0001202801841600020F8BDFF2045302168DE
:1013D00000220A50FF212531206800F082FA0646DB
:1013E000FF210931206800F07CFA0090FF2145318F
:1013F000206800F076FA0746009838433043E9D079
:101400003046384307D12946206800F077FAE87D56
:10141000697E8842DED80020E875002E01D00320C6
:10142000F8BD002F01D00F20F8BDA97E01200029B2
:10143000216801D00860C6E74860C4E79402002034
:1014400070B505460C4600791C21484308494318ED
:10145000284600F055F8002801D0112070BD9A757B
:1014600000209C609882284600F004F870BD0000BF
:1014700094020020F8B5044600791C2148431F4916
:1014800000264518FF2720681D37C6512068012116
:1014900081602946206800F0D1FC6968002913D0DA
:1014A00027E0FF270137FF211D31206800F019FADE
:1014B000002802D1A88AB842F5D1A88AB84203D040
:1014C0002946206800F0BAFCA88AA97D8842E8D3A2
:1014D000A98AC81FF9380ED0FF271D373946206862
:1014E00000F0FFF90028F9D020680121C160002038
:1014F000A8753046F8BD0F26F9E7000094020020D9
:1015000000791C21484303494018807D002800D001
:101510000120704794020020F8B501791C22514344
:10152000204A00238D1805220168120289180B60D9
:10153000696800290CD00324016824021A4B091998
:101540008B600168C903CB0E01219940174B1960CC
:101550000522016812028A18D368566997681469CF
:101560000021C9435161D160006805221202801830
:1015700081600161581C02D0184600F02DF8701CE3
:1015800002D0304600F028F8601C02D0204600F05F
:1015900023F8781C02D0384600F01EF80020E876C8
:1015A0006860F8BD940200208402020080E100E03F
:1015B00070B552000A439900049D0A432902059E12
:1015C0000A43310405240A43240780000721001937
:1015D00009024018026070BD1CB5002100910B4645
:1015E00001220191FFF7E4FF1CBD1CB500220B4650
:1015F000009211460192FFF7DBFF1CBD0522120786
:1016000080008018072203211202801801607047B1
:101610001CB5002100910B46012201911146FFF7F4
:10162000C7FF1CBD05221207800082180720000298
:101630001018026803231B049A430260026809041D
:101640000A43026070470000012181400148816027
:101650007047000000050050044A53680121814092
:101660000846984390601940D160704700050050CB
:1016700038B5084B05241B68009324026B464118BB
:1016800005E085005D592D192D69401C20C281425D
:10169000F7D838BD1421000002494018002101602C
:1016A00070470000006000400349401800680128AE
:1016B00000D00020704700000060004030B5194C99
:1016C0000546207889B0002805D06078854202D18F
:1016D000002009B030BD202213496846FEF716FDF0
:1016E000002069460875092000900B200190082011
:1016F00003900A2002900D4806900A48001DFFF74B
:101700000BFF002D01D0002200E0094A0548694680
:10171000001DFFF7BDFD0028DBD1012020706570A2
:10172000D6E70000800000203821000000E0D7014B
:10173000311F000010B50120FFF7C0FF10BD0000F1
:10174000F0B595B0FFF734FB002802D0002015B0AB
:10175000F0BD4B484468866821463140890009182D
:101760000C94CD680BE02904A80D890D40180419CC
:1017700020463040810042480C940818C568641C1B
:10178000A807F0D000200890A807800F3D4B022842
:1017900007D0AA0AA805000F84460EA99646002085
:1017A00059E02046304081003548641C0818C06864
:1017B000049486462804800D84463440301B800003
:1017C000AF0D001D874222D92D490C31002807D0CA
:1017D0002B4AA400A21814460C34C2B2381A03E0F3
:1017E0000C460021FAB20846C0B203900192029161
:1017F0000094A8065C69400F634672460899A047AA
:10180000B84213D1FF1C0498B9080C1830E01C48EA
:10181000A200101800210C30009002910197039152
:10182000A8065C69400F63467246E8E716498005E2
:101830000D40000C05430C983040810010480818FA
:10184000C56017E027463740BA000D4F401CD71936
:10185000FF68641C80C167466045F3D3A806009703
:101860001D69400F0EAB72460899A847002801D0A9
:1018700003484460FFF79CFA0121484067E70000F5
:101880003C0300203C0700203F00FFFFF8B5104D4F
:101890000E46074600206946AC68FFF755FA002857
:1018A00015D00C483C21808888437907890E08436D
:1018B0000F21890188438105890DB00201430098F9
:1018C0000246224092005219401CD1600090F8BD9F
:1018D0003C030020582100004058002800D001207F
:1018E00070474058002800D00120704703221202A0
:1018F00080184068084000D00120704730B5FF22B2
:101900000523CD7D002409321B02C318002D84500D
:10191000986905D04B7ECA68D054487E401C4876F2
:1019200030BD1FB501246B461C701972019206C8A8
:10193000684690471FBDFF23253302680021D15020
:10194000FF2302680933D15000680121016070470C
:1019500010B5FF38412805D1034801780029FCD093
:10196000FEF77CFD10BD0000000000200EB51449FC
:10197000144A0869496901901148029101A9083087
:10198000FFF7ACFB002801D0FFF7D4F80C48052185
:10199000083000680902401800690B4A0021C24063
:1019A00001200346009006480830FFF77FFB0448FB
:1019B0000830FFF76DFB05A0FEF73EFE0EBD0000F0
:1019C000C8200000511900000024F4000D0A5469D9
:1019D0006D657220496E697469616C697A65642EFF
:1019E0000D0A0000F8B504462168224D8900204800
:1019F0004919086061688900491908602068FFF783
:101A000023FE6068FFF720FE19482168401C89000A
:101A10004919086061688900491908600420FFF7C6
:101A2000D9FA0026144F012521793869C840C0072A
:101A3000C00F02D0002E19D00FE021782846884030
:101A4000F8600420FFF7C6FA2068FFF7FDFD0420C8
:101A5000FFF7C0FA761C092EE6DB20798540FD6091
:101A60000420FFF7B7FA6068FFF7EEFDF8BD00004D
:101A70000C060000000700500005005010B501786A
:101A8000002915D1007901280ED10D480C4A0078A3
:101A900001095078127800021043012940BA08D099
:101AA00001B208A0FEF7C8FD05490120491E0870D3
:101AB00010BD00050121000D0903411AF1E70000E6
:101AC0000100002056616C75653A2025640D0A00FE
:101AD0001FB50B4B6C460FCB0FC409480023094AB6
:101AE00069463038FFF758FB002801D0FFF722F88D
:101AF00003483038FFF740FB03A0FEF79DFD1FBDF4
:101B0000F82000007D1A00000D0A54574920496E44
:101B1000697469616C697A65640D0A000146032085
:101B2000CA0701D0412040028A0700D50248490770
:101B300001D50148401C704701820000FFB50C46EA
:101B400085B000210491FF21053100261F46665013
:101B5000FF2125316650FF211D316650FF210931DB
:101B6000665005462035E11DFF31AE71FA31EE7049
:101B7000012F0FD001220A6001212162216001683A
:101B8000002909D014498160806803210902611885
:101B900048601DE00222EEE7014626312330039122
:101BA0000290009701962046079B039A029900F045
:101BB0002CF80028F5D1E878002809D00920C001C8
:101BC0002118486C4864002802D0FFF7A7FF049052
:101BD000049809B0F0BD00008602000030B51C7802
:101BE000039D944208D205221202095D8018C1614A
:101BF0001878401C187006E00121002D02D0C16148
:101C0000002030BD4161012030BDFFB50F4609788D
:101C100083B00446002904D1059802780C988242CA
:101C200001D1012000E000200190FF202530002597
:101C3000002907D02550FF201D302550FF200930F6
:101C4000255055E0FF2125312046FFF745FE0126AE
:101C500000282CD1FF211D312046FFF73DFE002832
:101C600014D0FF201D302550FF2125312046FFF7DD
:101C700033FE00281BD10D9800902046059B0C9A3E
:101C80000699FFF7ABFF00283FD031E0FF21093173
:101C90002046FFF721FE00282AD0FF2009302550DA
:101CA000FF2125312046FFF717FE002805D0FF2031
:101CB0002530255066613E701AE005990C980F7822
:101CC000069ABC46874213D205231B02E3189B6980
:101CD0006746D3550A78521CD2B20A70411E8A4216
:101CE00003D102200102085101E0824200D02662A5
:101CF000019800280BD0FF26053631462046FFF715
:101D0000EBFD002803D0A551002007B0F0BD012055
:101D1000FBE70000FFB5054687B00C460020FF2119
:101D2000109F053105906050FF2125316050FF2143
:101D30001D316050FF2109316050012149022E46BA
:101D400008512036B071F07001202062A060B31DF0
:101D50000097029320460A9A0999FFF73FFF2868E7
:101D6000002807D01148A860A8680321090261185B
:101D7000486018E023350A980090019729462046CC
:101D8000099B029AFFF741FF0028F4D1F078002860
:101D900009D00920C0012118486C4864002802D0ED
:101DA000FFF7BCFE059005980BB0F0BD8602000061
:101DB000F8B5044600250320ED43000208188560AD
:101DC000254620352E79002E03D0A16841601120D0
:101DD000F8BD5807C017401C2871180701D5062008
:101DE000F8BDA361C1CA0C34C1C40C3A9078287004
:101DF00050680B266060F60150788E19B06010783C
:101E00000026183C01280ED0002801D1980601D5E3
:101E1000012000E00020687000909378526820460E
:101E2000FFF778FF05E06E70937852682046FFF761
:101E300085FE21680029D3D12E71F8BDFF221D3205
:101E4000002383508B8A8A68D25C8B8A5B1C8B82CE
:101E5000052109024018C26170471FB500226B4678
:101E60001A70197281680191827506C86846904798
:101E70001FBD10B50178022901D0012902D14068A7
:101E8000FEF758FE10BD00007CB50178264D0029F4
:101E900034D001290CD002292DD16A461170C068B6
:101EA000691C01900122C81DFFF732FA684630E034
:101EB000406801781D48FEF766FE01261B4C00288D
:101EC00003D069460E70019006E0A068E168814287
:101ED00005D0002069460870084669688847A068F0
:101EE000E168081AA188884206D80F490122491CD6
:101EF000C81DFFF70DFA7CBDAE707CBD0B480A49CA
:101F00001030FEF723FE002806D003206946087033
:101F10006846696888477CBD034901220846083045
:101F2000FFF78EFA7CBD0000680000201C03002033
:101F30000078012801D10149887070478000002095
:101F400000B58BB018220D496846FEF7DFF8FF2177
:101F500001310B480690401807910991089003231E
:101F6000084A06A96846FEF71BFE002801D0FEF7C6
:101F7000E1FD05A0FEF760FB0BB000BDE020000016
:101F800094000020731E00000D0A20554152542079
:101F9000696E697469616C697A65642E200D0A0046
:101FA000F0B50C46012185B005464902FFF79EFCBD
:101FB000032109026F180026002826D0FF212531B1
:101FC0002846FFF78EFC00281FD0FF2025302E501A
:101FD00081208000B860A07E002801D101206860C7
:101FE0000221684601700920C001291808680860AC
:101FF0000390E17D68460172E0680190E6752676FF
:1020000006CC6846083C90472DE004212846FFF79F
:102010006DFC002827D0FF2109312846FFF761FC1D
:10202000002820D021462846FFF768FCE07D617E2D
:10203000884218D1207E002807D0617EE268E075D2
:102040002069E060267666760AE0A07E002801D14D
:102050000120686081208000B860E675617EE268DA
:102060002046FFF75EFCFF271D3739462846FFF75D
:1020700038FC00280FD0A08AA17D884204D22146D6
:102080002846FFF7DBFE06E0EE51A17D002902D0D5
:102090002046FFF7E2FEFF27453739462846FFF77F
:1020A00020FC00280ED0EE51A07E002801D0012097
:1020B0002860E07D002805D0E675617EE268204654
:1020C000FFF72FFC05B0F0BD00300040000000001D
:1020D0000080004000040000000003030000000036
:1020E0000B00000009000000080000000A000000CA
:1020F0000100000000E0D70106000000050000001C
:10210000000068060100000001000000000000005F
:102110000000000000000050FFFFFFFFFFFFFFFF77
:10212000FFFFFFFFFFFFFFFF0000000000000000B7
:1021300000E0D70103000000FFFFFFFFFFFFFFFFEC
:10214000FFFFFFFFFFFFFFFF000000000000000097
:1021500000E0D7010300000029000000010000009A
:10216000010000000100000001000000010000006B
:102170000100000001000000020000004F766572BF
:10218000666C6F770D0A0000A82100000000002097
:1021900094000000580600003C220000940000203B
:1021A000C40E000068060000000000100A1126148A
:1021B0000015002020230024472600274728372920
:1021C000372A1F2B3D2C122D0830093109322033BC
:1021D00020340C3500365937594000410042004345
:1021E000004400450546004700480049004A334B7B
:1021F000314C314D004E804F0C50145170522053D1
:10220000005400020003000600056F07800801006B
:10221000000000000000000000200040000000005E
:10222000000000000000000000000000002000404E
:0C223000000000007C2100000024F400ED
:04000005000000C136
:00000001FF
